:020000040000FA
:100000000A28FF3FFF3FFF3FFE00030EF0000A08F3
:10001000F100B52A0B280523FA000623FB00CD01C9
:100020008301022B0830EE220630F422493083127D
:100030000313C6000130C700F430C8000130C90006
:10004000D522263083120313C6000130C700F430D6
:10005000C8000130C900D522B93083120313C6008D
:100060000030C700E830C8000330C900D522CF30C7
:1000700083120313C6000030C700E830C800033005
:10008000C900D522153083120313C6000130C70002
:10009000F430C8000130C900D522F73083120313B1
:1000A000C6000030C700F430C8000130C900D522B6
:1000B000933083120313C6000030C700E830C80035
:1000C0000330C900D522A43083120313C6000030C8
:1000D000C700E830C8000330C900D522F7308312CA
:1000E0000313C6000030C700F430C8000130C90057
:1000F000D522DC3083120313C6000030C700F43071
:10010000C8000130C900D5228B3083120313C6000A
:100110000030C700E830C8000330C900D522A53040
:1001200083120313C6000030C700E830C800033054
:10013000C900D522DC3083120313C6000030C7008B
:10014000B830C8000B30C900D52283120313CB018D
:10015000D030C0000730C1001D22013083120313CC
:10016000CA004A08CB0705304B02031CA8280630FA
:10017000EE220430F422063083120313C60001304D
:10018000C700F430C8000130C900D5220630831200
:100190000313C6000130C700F430C8000130C900A5
:1001A000D522263083120313C6000130C700E83081
:1001B000C8000330C900D522063083120313C600DD
:1001C0000130C700E830C8000330C900D5225D30D7
:1001D00083120313C6000130C700E830C8000330A3
:1001E000C900D5224A3083120313C6000130C7006C
:1001F000D030C8000730C900D5220630831203135F
:10020000C6000130C700F430C8000130C900D52253
:10021000063083120313C6000130C700F430C80053
:100220000130C900D522263083120313C6000130E5
:10023000C700E830C8000330C900D5220630831259
:100240000313C6000130C700E830C8000330C900FE
:10025000D522883083120313C6000130C700E8306E
:10026000C8000330C900D5225D3083120313C600D5
:100270000130C700D030C8000730C900D522063091
:1002800083120313C6000130C700F430C8000130E8
:10029000C900D522063083120313C6000130C700FF
:1002A000F430C8000130C900D5220B30831203138B
:1002B000C6000230C700E830C8000330C900D522AC
:1002C000B83083120313C6000130C700E830C800FD
:1002D0000330C900D5225D3083120313C6000130FC
:1002E000C700E830C8000330C900D5224A30831265
:1002F0000313C6000130C700E830C8000330C9004E
:10030000D522263083120313C6000130C700D03037
:10031000C8000730C900D522D23083120313C600AB
:100320000130C700F430C8000130C900D522D230F6
:1003300083120313C6000130C700F430C800013037
:10034000C900D522B83083120313C6000130C7009C
:10035000E830C8000330C900D5225D308312031392
:10036000C6000130C700E830C8000330C900D522FC
:10037000883083120313C6000130C700E830C8007C
:100380000330C900D5225D3083120313C60001304B
:10039000C700D030C8000730C900D522831203132C
:1003A000CC01D030C0000730C1001D2201308312C3
:1003B0000313CA004A08CC0705304C020318080092
:1003C000D129F701F801720873040319182AF901F9
:1003D000F90AF31BF72901300310F20DF30DFF3E6C
:1003E000031DEC290130F6007608F907E9290130F0
:1003F0000310F70DF80DFF3E031DF8297308750271
:10040000031D042A72087402031C0D2A7208F402E8
:100410007308031CF503F502771401300310F30C85
:10042000F20CFF3E031D0E2A0130F902031DF729CD
:100430007808F3007708F20008007B0883120313A2
:10044000C200C3014208F2004308F3004108F5006E
:100450004008F400E121730883120313C1007208FD
:10046000C0004108C3004008C2000310C20DC30D04
:10047000FF304205C4001F304305C500C409C5094B
:100480004508900044088F00CD01CD0A11144D0895
:1004900003190800472AFB30F2007208831603177D
:1004A0008505FB30F200720883160313850583125D
:1004B000031705151B309200831603138C14C030EC
:1004C000F20072088312031391043030F2007208B4
:1004D0009104831603130C14C030F20072088B04CD
:1004E00008007A0883120313C200C3014208F20015
:1004F0004308F3004108F5004008F4009422730813
:1005000083120313C1007208C0004108F3004008C1
:10051000F2003030F400F230F500E1217208FE3EC6
:100520008312031791000800F601F701721C9E2A3E
:100530007408F6070318F70A7508F7070130031067
:10054000F40DF50DFF3E031D9F2A01300310F30C3F
:10055000F20CFF3E031DA62A72087304031D962A9F
:100560007708F3007608F2000800831203138C1C4E
:10057000C82A8C10031083120317051D0314031CD3
:10058000C52A831203170515C82A831203170511FC
:1005900003130C1CCE2A0C10CD01111071088A0017
:1005A000700E8300FE0E7E0E0900831203134708AF
:1005B000C1004608C0007122FA22831203134908C1
:1005C000C1004808C0001D22FE22080030308316FA
:1005D00003138F000F1DEA2A4B220800F300730853
:1005E000F2007208FA000800F3007308F2007208C3
:1005F000FB0008008312031712150800831203176B
:1006000012110800E6221220032B06340634FF3FA5
:10061000FF3FFF3FFF3FFF3FFF3FFF3FFF3FFF3FEA
:10062000FF3FFF3FFF3FFF3FFF3FFF3FFF3FFF3FDA
:10063000FF3FFF3FFF3FFF3FFF3FFF3FFF3FFF3FCA
:10064000FF3FFF3FFF3FFF3FFF3FFF3FFF3FFF3FBA
:10065000FF3FFF3FFF3FFF3FFF3FFF3FFF3FFF3FAA
:10066000FF3FFF3FFF3FFF3FFF3FFF3FFF3FFF3F9A
:10067000FF3FFF3FFF3FFF3FFF3FFF3FFF3FFF3F8A
:10068000FF3FFF3FFF3FFF3FFF3FFF3FFF3FFF3F7A
:10069000FF3FFF3FFF3FFF3FFF3FFF3FFF3FFF3F6A
:1006A000FF3FFF3FFF3FFF3FFF3FFF3FFF3FFF3F5A
:1006B000FF3FFF3FFF3FFF3FFF3FFF3FFF3FFF3F4A
:1006C000FF3FFF3FFF3FFF3FFF3FFF3FFF3FFF3F3A
:1006D000FF3FFF3FFF3FFF3FFF3FFF3FFF3FFF3F2A
:1006E000FF3FFF3FFF3FFF3FFF3FFF3FFF3FFF3F1A
:1006F000FF3FFF3FFF3FFF3FFF3FFF3FFF3FFF3F0A
:10070000FF3FFF3FFF3FFF3FFF3FFF3FFF3FFF3FF9
:10071000FF3FFF3FFF3FFF3FFF3FFF3FFF3FFF3FE9
:10072000FF3FFF3FFF3FFF3FFF3FFF3FFF3FFF3FD9
:10073000FF3FFF3FFF3FFF3FFF3FFF3FFF3FFF3FC9
:10074000FF3FFF3FFF3FFF3FFF3FFF3FFF3FFF3FB9
:10075000FF3FFF3FFF3FFF3FFF3FFF3FFF3FFF3FA9
:10076000FF3FFF3FFF3FFF3FFF3FFF3FFF3FFF3F99
:10077000FF3FFF3FFF3FFF3FFF3FFF3FFF3FFF3F89
:10078000FF3FFF3FFF3FFF3FFF3FFF3FFF3FFF3F79
:10079000FF3FFF3FFF3FFF3FFF3FFF3FFF3FFF3F69
:1007A000FF3FFF3FFF3FFF3FFF3FFF3FFF3FFF3F59
:1007B000FF3FFF3FFF3FFF3FFF3FFF3FFF3FFF3F49
:1007C000FF3FFF3FFF3FFF3FFF3FFF3FFF3FFF3F39
:1007D000FF3FFF3FFF3FFF3FFF3FFF3FFF3FFF3F29
:1007E000FF3FFF3FFF3FFF3FFF3FFF3FFF3FFF3F19
:1007F000FF3FFF3FFF3FFF3FFF3FFF3FFF3FFF3F09
:02400E00E63F8B
:08400000FF3FFF3FFF3FFF3FC0
:00000001FF
