:020000040000FA
:020000000A28CC
:10000800FE00030EF0000A08F100D9280B280B2186
:10001800C8000C21C9008301082983120313C101F8
:10002800F51F2328F209F309F409F509F20A03195F
:10003800F30A0319F40A0319F50AC101C10AF91FE1
:100048003428F609F709F809F909F60A0319F70A2D
:100058000319F80A0319F90A0130FA007A08C106E7
:100068000030C5000030C4000030C3000030C200BA
:10007800750874047304720403198928C001C00A3E
:10008800F51B54280130FA000310F20DF30DF40D9E
:10009800F50DFA0B48280130FA007A08C007442801
:1000A8000130FA000310C20DC30DC40DC50DFA0BC3
:1000B800562875087902031D6B2874087802031DF9
:1000C8006B2873087702031D6B2872087602031CDD
:1000D8007C287208F6027308031C730FF702740871
:1000E800031C740FF8027508031C750FF9024214FB
:1000F80001300310F50CF40CF30CF20CFF3E031D59
:100108007D280130C002031D54284108031997288F
:10011800C209C309C409C509C20A0319C30A0319D4
:10012800C40A0319C50A4508F5004408F400430841
:10013800F3004208F2000800FB30F2007208831650
:1001480003178505FB30F200720883160313850533
:100158008312031705151B3092003030F200720825
:10016800831203139104C030F20072088B048316C3
:1001780003138C140800831203134608F20047087F
:10018800F3000030F31BFF30F400F5000030F900F5
:100198000030F800F430F7002430F600112072081F
:1001A800FE3E8312031791000800831203138C1C70
:1001B800EC288C10031083120317051D0314031C6D
:1001C800E928831203170515EC2883120317051174
:1001D80071088A00700E8300FE0E7E0E0900303012
:1001E800831603138F000F1DF728A0200421080091
:1001F800403083120313C6001F30C700BF20080019
:100208008312031712150800F320FC200929403433
:020218001F3491
:00000001FF
