:020000040000FA
:020000000A28CC
:10000800FE00030EF0000A08F100402B0B2897238E
:10001800D2009623FB00FA018301932B08307B233F
:100028000630832383120313CF01D030C00007307A
:10003800C1005122013083120313CE004E08CF07AE
:1000480005304F02031C19284930CA000130CB0083
:10005800F430CC000130CD00602326308312031326
:10006800CA000130CB00F430CC000130CD00602351
:10007800B93083120313CA000030CB00E830CC003B
:100088000330CD006023CF3083120313CA00003041
:10009800CB00E830CC000330CD006023153083124C
:1000A8000313CA000130CB00F430CC000130CD007E
:1000B8006023F73083120313CA000030CB00F430FA
:1000C800CC000130CD006023933083120313CA00A3
:1000D8000030CB00E830CC000330CD006023A430E2
:1000E80083120313CA000030CB00E830CC00033081
:1000F800CD006023F73083120313CA000030CB0011
:10010800F430CC000130CD006023DC3083120313BF
:10011800CA000030CB00F430CC000130CD006023A1
:100128008B3083120313CA000030CB00E830CC00B8
:100138000330CD006023A53083120313CA000030BA
:10014800CB00E830CC000330CD006023DC308312D4
:100158000313CA000030CB00B830CC000B30CD0000
:10016800602383120313D001D030C0000730C100D0
:100178005122013083120313CE004E08D0070530F8
:100188005002031CB82806307B2304308323063032
:1001980083120313CA000130CB00F430CC000130C5
:1001A800CD006023063083120313CA000130CB0050
:1001B800F430CC000130CD006023263083120313C5
:1001C800CA000130CB00E830CC000330CD006023FA
:1001D800063083120313CA000130CB00E830CC008C
:1001E8000330CD0060235D3083120313CA00013051
:1001F800CB00E830CC000330CD0060234A308312B6
:100208000313CA000130CB00D030CC000730CD003A
:100218006023063083120313CA000130CB00F43088
:10022800CC000130CD006023063083120313CA00CE
:100238000130CB00F430CC000130CD0060232630F3
:1002480083120313CA000130CB00E830CC0003301E
:10025800CD006023063083120313CA000130CB009F
:10026800E830CC000330CD006023883083120313BC
:10027800CA000130CB00E830CC000330CD00602349
:100288005D3083120313CA000130CB00D030CC009C
:100298000730CD006023063083120313CA000130F3
:1002A800CB00F430CC000130CD006023063083123F
:1002B8000313CA000130CB00F430CC000130CD006C
:1002C80060230B3083120313CA000230CB00F430D2
:1002D800CC000130CD006023B83083120313CA006C
:1002E8000130CB00E830CC000330CD0060235D3016
:1002F80083120313CA000130CB00E830CC0003306E
:10030800CD0060234A3083120313CA000130CB00AA
:10031800E830CC000330CD0060232630831203136D
:10032800CA000130CB00D030CC000730CD006023AC
:10033800D23083120313CA000130CB00F430CC0052
:100348000130CD006023D23083120313CA0001307C
:10035800CB00F430CC000130CD006023B8308312DC
:100368000313CA000130CB00E830CC000330CD00C5
:1003780060235D3083120313CA000130CB00E830DC
:10038800CC000330CD006023883083120313CA00E9
:100398000130CB00E830CC000330CD0060235D3065
:1003A80083120313CA000130CB00D030CC000730D1
:1003B800CD00602383120313D101D030C000073071
:1003C800C1005122013083120313CE004E08D10719
:1003D8000530510203180800E12900308312031385
:1003E800C4000030C3000030C2000030C1007508EE
:1003F8007404730472040319482AC501C50AF51B5D
:10040800132A0130C0000310F20DF30DF40DF50DA1
:10041800C00B072A0130C0004008C507032A013075
:10042800C0000310C10DC20DC30DC40DC00B152AA9
:1004380075087902031D2A2A74087802031D2A2ADE
:1004480073087702031D2A2A72087602031C3B2AC6
:100458007208F6027308031C730FF7027408031C72
:10046800740FF8027508031C750FF9024114013066
:100478000310F50CF40CF30CF20CFF3E031D3C2AA0
:100488000130C502031D132A4408F5004308F4008F
:100498004208F3004108F20008007B0883120313A6
:1004A800C200C3014208F2004308F3004108F50006
:1004B8004008F4008E22730883120313C1007208E7
:1004C800C0004108C3004008C2000310C30CC20C9E
:1004D8000310C30CC20C0310C30CC20C4208F20078
:1004E8004308F300FA30F4000030F5001F237308C6
:1004F80083120313C5007208C400C409C50945085E
:10050800900044088F00FA01FA0A11147A080319B6
:1005180008008A2AF701F801720873040319C52A2A
:10052800F901F90AF31BA42A01300310F20DF30DA7
:10053800FF3E031D992A0130F6007608F907962A2E
:1005480001300310F70DF80DFF3E031DA52A7308AF
:100558007502031DB12A72087402031CBA2A7208B4
:10056800F4027308031CF503F50277140130031035
:10057800F30CF20CFF3E031DBB2A0130F902031DE8
:10058800A42A7808F3007708F2000800FB30F2008C
:100598007208831603178505FB30F200720883166C
:1005A8000313850583120317051583160317851290
:1005B8008316031385128312031785128730920559
:1005C8001211FC309205831603138C143F308312EA
:1005D8000313910530309104831603130C148B1701
:1005E8000B170800831203135208C800C9014808F2
:1005F800F2004908F3004708F5004608F4001F23F5
:10060800730883120313C7007208C6004608F20075
:100618004708F300F401F5010030F9000130F80053
:10062800E830F7004830F600F1217208FE3E8312E8
:10063800031791000800F601F701721C292B7408B2
:10064800F6070318F70A7508F70701300310F40DC9
:10065800F50DFF3E031D2A2B01300310F30CF20C9D
:10066800FF3E031D312B72087304031D212B7708ED
:10067800F3007608F2000800831203138C1C532B36
:100688008C10031083120317051D0314031C502B31
:10069800831203170515532B831203170511031330
:1006A8000C1C592B0C10FA01111071088A00700EDD
:1006B8008300FE0E7E0E0900831203134B08C70049
:1006C8004A08C600F6228923831203134D08C10085
:1006D8004C08C00051228E230800831603130F080C
:1006E800CF3910388F000F1D772BCA220800F3006E
:1006F8007308F200720883120313D2000800F30093
:100708007308F2007208FB00080083120317121521
:100718008516080083120317121185120800712329
:080728001220942B0634063464
:02400E00F6FCBE
:00000001FF
