:020000040000FA
:020000000A28CC
:10000800FE00030EF0000A08F100AB2A0B280123BA
:10001800CD000223CE00FB018301FE2A5D3083124E
:100028000313C9000130CA004830CB000330CC00AC
:10003800DE22F83083120313C4000130C500DB212F
:10004800D23083120313C9000130CA000830CB0034
:100058000530CC00DE22383083120313C400003090
:10006800C500DB219F3083120313C9000130CA0089
:100078009830CB000430CC00DE22A8308312031362
:10008800C4000030C500DB21883083120313C90087
:100098000130CA006830CB000230CC00DE22383094
:1000A80083120313C4000030C500DB215D308312C6
:1000B8000313C9000130CA002830CB000430CC003B
:1000C800DE22183083120313C4000130C500DB217F
:1000D800883083120313C9000130CA00B030CB0046
:1000E8000530CC00DE22703083120313C4000730C1
:1000F800C500DB21883083120313C9000130CA0010
:100108004830CB000A30CC00DE223830831203138B
:10011800C4000030C500DB21D23083120313C900AC
:100128000130CA004830CB000A30CC00DE2238301B
:1001380083120313C4000030C500DB210B30831287
:100148000313C9000230CA00A830CB000730CC0026
:10015800DE22383083120313C4000030C500DB21CF
:100168005D3083120313C9000130CA007030CB0020
:100178000730CC00DE22703083120313C400003035
:10018800C500DB21373083120313C9000130CA00D0
:100198000830CB000530CC00DE2238308312031340
:1001A800C4000030C500DB21D23083120313C9001C
:1001B8000130CA00F030CB000330CC00DE225030D2
:1001C80083120313C4000130C500DB21D23083122F
:1001D8000313C9000130CA00B830CB000330CC008B
:1001E800DE22883083120313C4000130C500DB21EE
:1001F800883083120313C9000130CA006030CB0075
:100208000430CC00DE22E03083120313C400003037
:10021800C500DB21D23083120313C9000130CA00A4
:10022800B830CB000330CC00DE22883083120313B1
:10023800C4000130C500DB21D23083120313C9008A
:100248000130CA00A830CB000730CC00DE2238309D
:1002580083120313C4000030C500DB210B30831266
:100268000313C9000230CA00F030CB000330CC00C1
:10027800DE22FA220800003083120313C300003084
:10028800C2000030C1000030C00075087404730457
:10029800720403199629C401C40AF51B61290130A7
:1002A800FA000310F20DF30DF40DF50DFA0B5529B4
:1002B8000130FA007A08C40751290130FA00031006
:1002C800C00DC10DC20DC30DFA0B63297508790263
:1002D800031D782974087802031D782973087702AA
:1002E800031D782972087602031C89297208F60210
:1002F8007308031C730FF7027408031C740FF802C9
:100308007508031C750FF902401401300310F50C31
:10031800F40CF30CF20CFF3E031D8A290130C402D1
:10032800031D61294308F5004208F4004108F30061
:100338004008F2000800F701F80172087304031975
:10034800D629F901F90AF31BB52901300310F20D7A
:10035800F30DFF3E031DAA290130F6007608F907C0
:10036800A72901300310F70DF80DFF3E031DB6292C
:1003780073087502031DC22972087402031CCB2975
:100388007208F4027308031CF503F50277140130B0
:100398000310F30CF20CFF3E031DCC290130F902C7
:1003A800031DB5297808F3007708F20008008312C6
:1003B80003134E08C600C7014608F2004708F300B9
:1003C8004508F5004408F4009F21730883120313BD
:1003D800C5007208C40007304502D1300319440231
:1003E800031C042AD030F8000730F9003622D03038
:1003F80083120313C4020730031CC503C502EF2987
:100408004508F9004408F80036220800FB30F200DD
:100418007208831603178505FB30F20072088316ED
:100428000313850583120317051583160317851211
:1004380083160313851283120317851287309205DA
:100448001211FC309205831603138C143F3083126B
:100458000313910530309104831603130C148B1782
:100468000B170800790883120313C1007808C0002D
:100478000310C10CC00C0310C10CC00C0310C10C3C
:10048800C00C4008F2004108F300FA30F4000030D4
:10049800F5008A22730883120313C3007208C2008E
:1004A800C209C3094308900042088F00FB01FB0AF8
:1004B80011147B08031908005D2A831203134D08E1
:1004C800C700C8014708F2004808F3004608F500CD
:1004D8004508F4008A22730883120313C6007208C1
:1004E800C5004508F2004608F300F401F5010030A4
:1004F800F9000130F800E830F7004830F6003F21F5
:100508007208FE3E8312031791000800F601F701F6
:10051800721C942A7408F6070318F70A7508F70777
:1005280001300310F40DF50DFF3E031D952A01302F
:100538000310F30CF20CFF3E031D9C2A720873048F
:10054800031D8C2A7708F3007608F200080083124E
:1005580003138C1CBE2A8C10031083120317051D6D
:100568000314031CBB2A831203170515BE2A831222
:100578000317051103130C1CC42A0C10FB011110DE
:1005880071088A00700E8300FE0E7E0E0900831625
:1005980003130F08CF3910388F000F1DD12A0A22F4
:1005A8008316031705128316031305128312031704
:1005B80005120800831203134A08C6004908C5003B
:1005C8006122F522831203134C08C5004B08C400AE
:1005D800DB21EF220800831203171211851205117F
:1005E80008008312031712158516080083120317D3
:0E05F8000516FD2ACB221220FF2A06340634F7
:02400E00F6FCBE
:00000001FF
